:020000040800F2
:1000000000000120C90200081903000819030008B4
:100010001903000819030008190300080000000074
:100020000000000000000000000000003106000891
:100030001903000800000000C10600082507000899
:100040001903000819030008190300081903000820
:100050001903000819030008190300081903000810
:100060001903000819030008190300081903000800
:1000700019030008190300081903000819030008F0
:100080001903000819030008190300080000000004
:10009000000000000000000000000000190300083C
:1000A00019030008190300081903000819030008C0
:1000B00019030008190300081903000819030008B0
:1000C00019030008190300081903000819030008A0
:1000D00019030008190300081903000800000000B4
:1000E00019030008190300081903000800000000A4
:1000F00000000000000000000000000019030008DC
:100100000000000019030008190300081903000883
:1001100000000000000000000000000000000000DF
:10012000190300081903000819030008190300083F
:10013000190300080000000000000000000000009B
:10014000000000000000000000000000190300088B
:10015000190300081903000819030008190300080F
:100160001903000819030008000000000000000047
:10017000000000000000000000000000000000007F
:10018000000000001903000800000000000000004B
:040190001903000847
:1001A0000348044B834202D0034B03B11847704706
:1001B0000C0000200C000020000000000548064B49
:1001C0001B1AD90F01EBA301491002D0034B03B155
:1001D000184770470C0000200C00002000000000B1
:1001E00010B5064C237843B9FFF7DAFF044B13B17F
:1001F0000448AFF300800123237010BD0C000020E1
:1002000000000000B819000808B5054B1BB10549EE
:100210000548AFF30080BDE80840FFF7CFBF00BF3F
:100220000000000010000020B81900080244034636
:10023000934200D1704703F8011BF9E770B50D4DEB
:100240000D4C641BA4100026A64209D10B4D0C4C8A
:1002500001F0B2FB641BA4100026A64205D170BDBC
:1002600055F8043B98470136EEE755F8043B9847AC
:100270000136F2E7E8190008E8190008E819000853
:10028000EC190008034B0360034B0B6080231360E1
:10029000704700BF8406002084040020034B0360E5
:1002A000034B0B604FF480731360704728040020E9
:1002B00028000020034AD2F8883043F47003C2F8C3
:1002C0008830704700ED00E0DFF834D00D480E496B
:1002D0000E4A002302E0D458C4500433C4188C42A0
:1002E000F9D30B4A0B4C002301E013600432A24205
:1002F000FBD3FFF7DFFFFFF7A1FF01F029FB7047FA
:1003000000000120000000200C000020F01900086F
:100310000C00002070210020FEE7000030B5114BDA
:100320001A461B688342FBD3546841681519A842DA
:1003300006D1214450188342516010D1104602E08A
:100340004418A3420CD1084C2468A3421FBF5C6828
:10035000641844601C680460824218BF106030BD9D
:100360000360F9E7F8060020F40600202DE9F041CB
:10037000044600F07FFE4349434D0B680BBB434AE4
:1003800056071FBFD01D20F0070002F5A052131A18
:100390000CBF4FF4A053024613443D4E083B23F0DC
:1003A0000703002070603260C3E90000981AC2E9B8
:1003B00000300B60374B1860374B18604FF000432C
:1003C0002B602F68274205D000F01AFF0026304628
:1003D000BDE8F081631E0A33F6D8600704F1080215
:1003E00026D022F0070308339342EDD9DFF8A88026
:1003F000D8F800509D42E7D3254A146860689842B7
:1004000001D22668B6B90968A142DDD02168166814
:100410001160C21A102A14D9E01841070DD04FF00C
:10042000500383F31188BFF36F8FBFF34F8FFEE745
:100430001346DBE722463446E0E742606360FFF79D
:100440006DFF62681349AD1A1743144A0868676064
:10045000002323601368C8F80050854203F10103AC
:1004600006F1080638BF0D60136000F0C9FE73077F
:10047000ADD04FF0500383F31188BFF36F8FBFF3FC
:100480004F8FFEE7F4060020E00600200007002062
:10049000F8060020EC060020F0060020E806002008
:1004A00010B5044690B31A4A50F8043C126813423F
:1004B00008D14FF0500383F31188BFF36F8FBFF360
:1004C0004F8FFEE750F8081C41B14FF0500383F303
:1004D0001188BFF36F8FBFF34F8FFEE723EA02034C
:1004E00040F8043C00F0C6FD0A4A54F8043C116888
:1004F000A4F108000B441360FFF710FF064A1368CD
:10050000BDE810400133136000F07ABE10BD00BF9B
:10051000E0060020F0060020E406002000F10803B9
:100520004FF0FF32C0E90223436003610023036000
:10053000704700230361704730B50C68631C0AD113
:1005400003695A684A6091608B605960036808616A
:100550000133036030BD00F108021346526815688C
:10056000A542FAD9EDE7D0E9011203698A6051602A
:100570005968814208BF5A60002202611A68013A34
:100580001A6018687047000008480068006880F327
:1005900008884FF0000080F3148862B661B6BFF39C
:1005A0004F8FBFF36F8F00DF00BF000008ED00E04A
:1005B000DFF80C00016841F4700101607047000031
:1005C00088ED00E082B0002301930D4B1B680133DE
:1005D00008D04FF0500383F31188BFF36F8FBFF340
:1005E0004F8FFEE74FF0500383F31188BFF36F8FF7
:1005F000BFF34F8F019B002BFCD002B0704700BFB0
:10060000040000204FF0807340F8043C074B40F892
:100610000C3C21F001016FF0020340F8081C40F887
:10062000202C40F8243C4438704700BFC505000822
:10063000074B19680868B0E8F04F80F30988BFF3EA
:100640006F8F4FF0000080F311887047AFF3008088
:10065000402000204FF0500383F31188BFF36F8FC9
:10066000BFF34F8F0A4A13680133012B13600ED179
:100670004FF0E023D3F8043DDBB243B14FF0500319
:1006800083F31188BFF36F8FBFF34F8FFEE770477F
:1006900004000020084A136843B94FF0500383F365
:1006A0001188BFF36F8FBFF34F8FFEE7013B1360DD
:1006B0000BB983F31188704704000020000000008C
:1006C000EFF30980BFF36F8F154B1A681EF0100F00
:1006D00008BF20ED108A20E9F04F10602DE90900D5
:1006E0004FF0500080F31188BFF34F8FBFF36F8F2F
:1006F00000F046FE4FF0000080F3118809BC196835
:100700000868B0E8F04F1EF0100F08BFB0EC108A78
:1007100080F30988BFF36F8F704700BFAFF300808D
:100720004020002008B54FF0500383F31188BFF339
:100730006F8FBFF34F8F00F0ABFC28B14FF0E02379
:100740004FF08052C3F8042D002383F3118808BDB5
:100750004FF0E022002313619361054B4FF47A714F
:100760001B68B3FBF1F3013B53610723136170472F
:10077000000000204FF0E02337B5D3F8001D3A4ABF
:10078000914208D14FF0500383F31188BFF36F8F6C
:10079000BFF34F8FFEE7D3F8002D344B9A4208D1B8
:1007A0004FF0500383F31188BFF36F8FBFF34F8F68
:1007B000FEE72F4B1A78D2B20192FF221A701B78F3
:1007C0002C4ADBB28DF803309DF8033003F0500360
:1007D0001370294A0723136000219DF803000006C7
:1007E00003F1FF340CD411B1032B136011D04FF07F
:1007F000500383F31188BFF36F8FBFF34F8FFEE772
:100800009DF803305B00DBB28DF8033001212346F5
:10081000E3E74FF440731360019B154A4FF0E02467
:10082000DBB21370D4F8203D43F47003C4F8203DCC
:10083000D4F8203D43F07043C4F8203DFFF788FF13
:100840000E4B00251D60FFF7B3FED4F8343F43F094
:100850004043C4F8343FFFF797FE00F091FDFFF7E7
:10086000B1FE284603B030BD71C20F4170C20F41C6
:1008700000E400E0041B0020001B00200400002016
:1008800010B50446FFF7E6FEA46BFFF703FFB4FACA
:1008900084F0400910BD034610B41A6C08466AB1D2
:1008A000DC68996814448C4228BF1968DC6028BF52
:1008B000D960D9685DF8044B01F070B85DF8044B5D
:1008C000704770B50446FFF7C5FE94F8455004F133
:1008D00024066DB2002D14DCFF2384F84530FFF7A9
:1008E000D9FEFFF7B7FE94F8445004F110066DB23C
:1008F000002D12DCFF2384F84430BDE87040FFF780
:10090000C9BE636A002BE7D0304600F0B7FD08B1DE
:1009100000F060FE013D6DB2DCE72369002BE9D0F9
:10092000304600F0ABFD08B100F054FE013D6DB261
:10093000DEE770B50E46044640B94FF0500383F32E
:100940001188BFF36F8FBFF34F8FFEE7C56BA5B361
:10095000036CA3FB053585BBFFF77CFED4E90F31A3
:10096000226862604B43D0185B1A1A44FF23A563C8
:10097000A06084F84430E26084F84530A6B9236969
:1009800073B104F1100000F079FD48B14FF0E0239D
:100990004FF08052C3F8042DBFF34F8FBFF36F8F1A
:1009A000FFF778FE012070BD04F11000FFF7B6FDDF
:1009B00004F12400FFF7B2FDF2E74FF0500383F398
:1009C0001188BFF36F8FBFF34F8FFEE737B50D462A
:1009D0001C4643B94FF0500383F31188BFF36F8F68
:1009E000BFF34F8FFEE748B3B2B139B35023019341
:1009F000019B502B19D1019B22600121C4E90F05F5
:100A000084F846102046FFF794FF9DF8183084F8CC
:100A10004C30204603B030BD81B950230193019B77
:100A2000502B02D1019B2246E6E74FF0500383F39F
:100A30001188BFF36F8FBFF34F8FFEE74FF0500366
:100A400083F31188BFF36F8FBFF34F8FFEE7F0B5CD
:100A500085B00E460192044640B94FF0500383F32F
:100A60001188BFF36F8FBFF34F8FFEE751B9036C4F
:100A700043B14FF0500383F31188BFF36F8FBFF37F
:100A80004F8FFEE700F0ACFD50B9019B43B14FF032
:100A9000500383F31188BFF36F8FBFF34F8FFEE7CF
:100AA000FFF7D8FDA56BDDB131462046013DFFF7CC
:100AB000F2FEA563236973B104F1100000F0DEFCBF
:100AC00048B14FF0E0234FF08052C3F8042DBFF33C
:100AD0004F8FBFF36F8FFFF7DDFD012005B0F0BD35
:100AE000019B1BB9FFF7D6FD0020F7E702A800F035
:100AF00029FD2F46FFF7CEFD00F0BCFAFFF7AAFD57
:100B000094F84430FF2B08BF84F8447094F84530C3
:100B1000FF2B08BF84F84570FFF7BCFD01A902A8B0
:100B200000F01CFD38BB2046FFF7AAFEE8B1019992
:100B300004F1240000F05EFC2046FFF7C2FE00F046
:100B40005FFB48B94FF0E0234FF08052C3F8042D0B
:100B5000BFF34F8FBFF36F8FFFF77CFDA56B002DA9
:100B6000A2D1019B002BC5D1BCE72046FFF7A9FE0F
:100B700000F046FBF0E72046FFF7A3FE00F040FB45
:100B80002046FFF77DFE0028E6D0ADE770B540B9FE
:100B90004FF0500383F31188BFF36F8FBFF34F8F74
:100BA000FEE7B9B10C4A00231C461546566886423A
:100BB00004D105EBC403C3E900100BE01BB91668B0
:100BC000002E08BF13460134082C02F10802EDD1B3
:100BD000002BF0D170BD00BF081B002070B504468B
:100BE0000D461646FFF736FD94F84430FF2B04BF40
:100BF000002384F8443094F84530FF2B04BF0023D1
:100C000084F84530FFF746FDA36B2BB932462946E1
:100C100004F1240000F008FC2046BDE87040FFF716
:100C200050BE00002DE9F0410446FFF713FD334BA1
:100C3000334E1A68334F01321A603568002D52D195
:100C400034601B68012B1FD1B84640460135FFF7C1
:100C500065FC382D08F11408F7D1DFF8D0802A4D53
:100C60004046FFF75BFC2846FFF758FC2748FFF794
:100C700055FC2748FFF752FC2648FFF74FFC264B50
:100C8000C3F80080254B1D60254A136801331360AB
:100C9000244A63641168E36A8B4288BF136014229C
:100CA0005343F918201D4A68A2609568E5606860A2
:100CB0009060FA5861610132FA50FFF7EBFC1A4B71
:100CC0001B6873B13368DA6AE36A9A4209D24FF05B
:100CD000E0234FF08052C3F8042DBFF34F8FBFF3D2
:100CE0006F8FBDE8F081104B1A68E36A002ACBD100
:100CF0003268D26A9A4298BF3460C5E76C1B002004
:100D000040200020E01B0020B81B00209C1B00207E
:100D1000881B0020701B0020B41B0020B01B00208B
:100D2000501B0020641B0020601B0020CC1B0020F7
:100D3000F8B51B4B1B4C1D680646206804300F4657
:100D4000FFF711FC731C13D197B1174B21685A6838
:100D50008A6021689068C860216804314160216818
:100D600004319160226853611A6801321A60F8BD3B
:100D70002368AD195D6007D30C4B18682168BDE886
:100D8000F8400431FFF7D8BB094B186821680431DB
:100D9000FFF7D2FB074B1A68AA4288BF1D60E6E73F
:100DA000681B002040200020701B0020B01B00208A
:100DB000B41B00204C1B0020064A13681968064B20
:100DC00019B94FF0FF321A6070471268D268126882
:100DD000F9E700BFB41B00204C1B002010B590F8B1
:100DE000593004463BB9006BFFF75AFB2046BDE87B
:100DF0001040FFF755BB012BF9D0022B08D04FF064
:100E0000500383F31188BFF36F8FBFF34F8FFEE75B
:100E100010BD000080B5134C134F144D236873B9F7
:100E2000134B1B68012BF8D94FF0E0234FF0805291
:100E3000C3F8042DBFF34F8FBFF36F8FEDE7FFF7BC
:100E400009FCFB68DE68301DFFF78DFB2B68013B5A
:100E50002B602368013B2360FFF71CFC3046FFF743
:100E6000BDFFDBE7841B0020881B00206C1B0020DB
:100E7000E01B00202DE9F84F0C9C960080460D46A3
:100E8000206B3246A521DDE90A7A9946FFF7CEF9B3
:100E9000D4F830B0C5B16B1E04F133020F3513F82E
:100EA000011F02F8011F09B1AB42F8D1002384F8F9
:100EB0004330372F0BD94FF0500383F31188BFF322
:100EC0006F8FBFF34F8FFEE784F83450F1E70025B2
:100ED000E762E764201D2565FFF72BFB043E04F164
:100EE0001800FFF726FBC7F138070BEB060024615B
:100EF000A7616462656584F858504A46414620F00F
:100F00000700FFF77FFB2060BAF1000F01D0CAF89D
:100F10000040BDE8F88F70B586B0DDE90B5445B9E7
:100F20004FF0500383F31188BFF36F8FBFF34F8FE0
:100F3000FEE744B94FF0500383F31188BFF36F8F7E
:100F4000BFF34F8FFEE75C260596059E5C2E08D00A
:100F50004FF0500383F31188BFF36F8FBFF34F8FB0
:100F6000FEE72563022584F8595004AD01950A9DDA
:100F700002940095059EFFF77DFF2046FFF752FE85
:100F8000049806B070BD2DE9F043074685B0900087
:100F9000884616469946FFF7E9F9054620B94FF00D
:100FA000FF3005B0BDE8F0835C20FFF7DFF90446B1
:100FB00098B1002380F859300D9B056301930C9B79
:100FC0000290009332464B4641463846FFF752FFA7
:100FD0002046FFF727FE0120E3E72846FFF760FAE7
:100FE000DDE7000010B588B0002407AA06A905A80F
:100FF000CDE90544FFF746F9059B0293069B079A46
:1010000016491748CDE900432346FFF784FFA8B1EE
:1010100000F05EFC012815D14FF0500383F31188D6
:10102000BFF36F8FBFF34F8F0E4B4FF0FF321A603D
:101030000D4B18600D4B1C60FFF79CFB0C4B1B68A5
:1010400008B010BD0130F9D14FF0500383F311887F
:10105000BFF36F8FBFF34F8FFEE700BFD0190008BB
:10106000150E00084C1B0020601B0020681B002090
:1010700008000020024A136801331360704700BF64
:10108000481B0020014B1868704700BF681B0020F8
:101090002DE9F84F4F4B1B68002B40F094804E4BCE
:1010A0001C6801341C60BCB94C4B1A68126842B110
:1010B0004FF0500383F31188BFF36F8FBFF34F8F4F
:1010C000FEE7474A1968106818601160454A1368BE
:1010D00001331360FFF770FEDFF818C1424ADCF8F5
:1010E0000030DFF814819C424FF000000FD2D8F896
:1010F0000030DB6A14214B43D358022B3B4B1B6857
:1011000028BF0120002B18BF0120BDE8F88FDFF8B1
:10111000CCE0DFF8E890DEF800301B6823B94FF030
:10112000FF33CCF80030E2E7DEF80030DB68DB6844
:1011300059688C4202D2CCF80010D8E7D3E90216E5
:101140005D698E60716069681F1DB9424FF00001D2
:1011500008BF6E6059612968013929609D6A7DB1B7
:10116000D3E907168E607160696803F1180A51456A
:101170004FF0000108BF6E6099622968013929604B
:10118000D96AD9F80050A9424FF0140505FB01F5C2
:1011900002EB050A88BFC9F80010DAF804609E6007
:1011A000D6F808B0C3F80CB0CBF80470B760C3F839
:1011B00014A0535901335351D8F80030DB6A9942D7
:1011C00028BF0120A7E70A4A1368013313600020F3
:1011D0009BE700BF481B0020681B0020B41B0020B9
:1011E000B01B0020541B0020E01B0020581B0020D7
:1011F0005C1B00204C1B002040200020641B0020B2
:101200002DE9F84F444C236843B94FF0500383F362
:101210001188BFF36F8FBFF34F8FFEE7FFF71AFA06
:101220002368013B236023682BB10024FFF732FAC7
:101230002046BDE8F88F394A1268002AF5D0384EAA
:10124000384F3949DFF8ECE0DFF8E4804FF0140C58
:101250004FF001093EE0F368DB68D3E90724986AA0
:1012600094606260426803F11805AA424FF00002E0
:1012700008BF44609A620268013A0260D3E902241E
:1012800058699460626042681D1DAA42026808BFE6
:101290004460013A02603868DA6A82420CFB02F06C
:1012A00001EB000A88BF3A60DAF804409C60D4F889
:1012B00008B0C3F80CB0CBF80450A5600C58C3F8C4
:1012C00014A001340C50DEF80000C06A824201D341
:1012D000C8F800903268002ABDD10BB1FFF76CFD51
:1012E000124D2C6844B1124E0127FFF7D1FE00B118
:1012F0003760013CF9D12C600D4B1B68002B94D05A
:101300004FF0E0234FF08052C3F8042DBFF34F8F0E
:10131000BFF36F8F012489E7481B00206C1B00205E
:101320009C1B0020641B0020E01B00205C1B002095
:10133000581B00204020002008B550B94FF0E02392
:101340004FF08052C3F8042DBFF34F8FBFF36F8F60
:1013500008BD0A4B196841B14FF0500383F311885F
:10136000BFF36F8FBFF34F8FFEE7FFF783FEFFF7EB
:10137000DFFCFFF745FF0028E0D0E9E7481B00202D
:10138000174B1A68174B70B512B101221A6070BD65
:10139000154D1A602A681549142606FB02F3C81871
:1013A000CC588CB144680833646844600B449C4258
:1013B00004BF63684360142303FB02114B68D968C0
:1013C0000B4B19602A60E2E742B94FF0500383F3F8
:1013D0001188BFF36F8FBFF34F8FFEE7013ADCE751
:1013E000481B0020581B0020641B0020E01B00202D
:1013F0004020002010B50C4640B94FF0500383F355
:101400001188BFF36F8FBFF34F8FFEE7054B19684D
:101410001831FFF791F820460121BDE81040FFF791
:1014200087BC00BF4020002070B40C46114640B974
:101430004FF0500383F31188BFF36F8FBFF34F8FCB
:10144000FEE70D4B42681D689668EA611D682E62D2
:101450001D68183575601D681B68183595609862A1
:101460000368002903F1010303600CBF20464FF01D
:10147000FF3070BCFFF75CBC40200020C368DB6815
:10148000F0B543B94FF0500383F31188BFF36F8F6A
:10149000BFF34F8FFEE7D3E907019A6A8160486086
:1014A000506803F11804A04208BF516000219962FE
:1014B0001168013911601D4AD96A1268002A29D1C0
:1014C000D3E902405A69A060446054681D1DAC42D3
:1014D00008BF5060106801381060154A10688142DA
:1014E00088BF1160134814224A43861874689C60B0
:1014F000A768DF607D60A5605E618358013383501B
:101500000D4B1B68DB6A994283BF0C4B01201860AE
:101510000020F0BD0A4A5068D86185681D626C6081
:1015200084609A62136801331360E9E7481B002066
:10153000641B0020E01B002040200020581B0020DE
:101540009C1B0020034B1B680360034B1B6843601C
:10155000704700BF541B0020681B002070B50D466B
:10156000044640B94FF0500383F31188BFF36F8FE7
:10157000BFF34F8FFEE741B94FF0500383F311885B
:10158000BFF36F8FBFF34F8FFEE7FFF763F80F4B8B
:1015900019682B685A1C17D00D48266800686268C5
:1015A000864208D08A4206D800232B600124FFF728
:1015B00071F8204670BD881A8342F5D95B1A13442E
:1015C0002B602046FFF7BEFF0024F0E7681B0020D9
:1015D000541B0020014B01221A607047581B002049
:1015E000054B1B6833B1054B1868B0FA80F0400911
:1015F0004000704701207047601B0020481B0020FE
:10160000914208B5416000610AD8D21A83699A42B2
:101610000DD2084B011D1868FEF78EFF002008BD93
:101620009A4201D2994202D2034B011DF3E70120F5
:10163000F5E700BF402100204421002070B504469A
:101640000D461646A1692B46324629442046FFF72F
:10165000D7FF00B970BDA36920461D44236A98478F
:10166000F0E700000E4B1B68DB6870B5DC680546D0
:10167000201D0E46FEF777FF94F828305A0709D54B
:10168000324629462046FFF7D9FF236A2046BDE8A7
:101690007040184723F0010384F82830F5E700BFB5
:1016A00044210020F8B50F4E0546FFF7EBFC3368E8
:1016B0008342044609D90C4F3B681A6852B90B4A59
:1016C000116839601360012300E000232B6034604F
:1016D0002046F8BDDB684FF0FF311868FFF7C2FF06
:1016E000EAE700BF342100204421002040210020EF
:1016F0002DE9F041594F5A4E86B03B68D3F800802F
:10170000B8F1000F33D0DB68D3F800800024FFF776
:10171000B1FC02A8FFF7C6FF029B0546002B43D190
:101720003CBB40452BD3FFF76BFD29464046FFF7F6
:1017300099FF3068002202A9FFF789F90028DCD060
:10174000029B0498002B32DB049C6369002B35D18B
:1017500001A8FFF7A7FF029B013B0546082BE8D82D
:10176000DFE803F03030535A733030535A0001240D
:10177000CDE73C4B1B681C68B4FA84F464093068FC
:101780002246A8EB0501FFF729FAFFF739FD0028EB
:10179000CFD14FF0E0234FF08052C3F8042DBFF3B8
:1017A0004F8FBFF36F8FC4E7FFF72AFDC1E7039B9D
:1017B00005999847029B002BBBDBC5E7201DFEF770
:1017C000D2FEC5E794F82830A16943F0010384F8FC
:1017D0002830039B024619442046FFF711FF0028DA
:1017E000A7D094F8283059070AD5A36903992A4647
:1017F00019442046FFF722FF236A2046984798E7BE
:1018000023F0010384F82830F6E794F8283023F019
:10181000010384F828308CE794F8283043F0010362
:1018200084F828300399A16141B94FF0500383F344
:101830001188BFF36F8FBFF34F8FFEE70346024659
:1018400001442046FFF7DCFE73E794F828309A073E
:10185000DDD42046FEF724FE6BE700BF44210020C4
:101860003C21002040210020F7B5114CFEF7F2FE8C
:101870002568BDB90F4F104E3846FEF74FFE304673
:10188000FEF74CFE0D4B0E4A1F600E4B10211E60E2
:101890000A200D4B0095FFF799F8206010B10B4915
:1018A000FFF774F903B0BDE8F040FEF7F3BE00BFE8
:1018B0003C2100205C210020482100204421002000
:1018C000942000204021002044200020D519000849
:1018D00010B588B0FFF7C8FF124B1B68B3B10024E6
:1018E00007AA06A905A8CDE90544FEF7D7FC059B84
:1018F0000293069B019302230093079A0A490B481F
:101900002346FFF708FB0A4B186040B94FF050031D
:1019100083F31188BFF36F8FBFF34F8FFEE7012072
:1019200008B010BD3C210020DA190008F1160008AB
:101930003821002008B5054C636983F400536361C6
:101940004FF47A70FFF7F8FCF6E700BF000802409A
:101950000E4A136B43F0040313B513630C4B0D498C
:101960001A680D4842F080621A605A6842F40052C8
:101970005A6000243723CDE9003480222346FFF744
:1019800002FBFFF72FFB204602B010BD00380240DB
:1019900000080240E2190008351900080A44914283
:1019A00000F1FF3300D1704710B511F8014B03F877
:1019B000014F9142F9D110BDF8B500BFF8BC08BC89
:1019C0009E467047F8B500BFF8BC08BC9E467047FD
:1019D00049444C4500546D725100546D7220537649
:0819E00063004C4544000000C7
:0419E80009020008E8
:0419EC00E10100080D
:0C19F0000024F400AAAAAAAA37000000F4
:04000005080002C924
:00000001FF
