:020000040800F2
:100000000000012089020008D9020008D902000876
:10001000D9020008D9020008D90200080000000037
:10002000000000000000000000000000E1020008E5
:10003000D90200080000000011030008D9020008DE
:10004000D9020008D9020008D9020008D902000824
:10005000D9020008D9020008D9020008D902000814
:10006000D9020008D9020008D9020008D902000804
:10007000D9020008D9020008D9020008D9020008F4
:10008000D9020008D9020008D902000800000000C7
:10009000000000000000000000000000D90200087D
:1000A000D9020008D9020008D9020008D9020008C4
:1000B000D9020008D9020008D9020008D9020008B4
:1000C000D9020008D9020008D9020008D9020008A4
:1000D000D9020008D9020008D90200080000000077
:1000E000D9020008D9020008D90200080000000067
:1000F000000000000000000000000000D90200081D
:1001000000000000D9020008D9020008D902000846
:1001100000000000000000000000000000000000DF
:10012000D9020008D9020008D9020008D902000843
:10013000D9020008000000000000000000000000DC
:10014000000000000000000000000000D9020008CC
:10015000D9020008D9020008D9020008D902000813
:10016000D9020008D90200080000000000000000C9
:10017000000000000000000000000000000000007F
:1001800000000000D902000800000000000000008C
:04019000D902000888
:1001A0000348044B834202D0034B03B11847704706
:1001B0000000002000000020000000000548064B61
:1001C0001B1AD90F01EBA301491002D0034B03B155
:1001D00018477047000000200000002000000000C9
:1001E00010B5064C237843B9FFF7DAFF044B13B17F
:1001F0000448AFF300800123237010BD00000020ED
:1002000000000000EC03000808B5054B1BB10549D0
:100210000548AFF30080BDE80840FFF7CFBF00BF3F
:100220000000000004000020EC03000870B50D4D34
:100230000D4C641BA4100026A64209D10B4D0C4C9A
:1002400000F0D4F8641BA4100026A64205D170BDAE
:1002500055F8043B98470136EEE755F8043B9847BC
:100260000136F2E70404000804040008040400084E
:1002700008040008034AD2F8883043F47003C2F837
:100280008830704700ED00E0DFF834D00D480E49AB
:100290000E4A002302E0D458C4500433C4188C42E0
:1002A000F9D30B4A0B4C002301E013600432A24245
:1002B000FBD3FFF7DFFFFFF7B9FF00F095F87047BA
:1002C0000000012000000020000000200C040008B5
:1002D000000000208C040020FEE700000000000069
:1002E000074B19680868B0E8F04F80F30988BFF33E
:1002F0006F8F4FF0000080F311887047AFF30080DC
:100300008804002000000000000000000000000041
:10031000EFF30980BFF36F8F154B1A681EF0100FB3
:1003200008BF20ED108A20E9F04F10602DE9090088
:100330004FF0500080F31188BFF34F8FBFF36F8FE2
:1003400000F018F84FF0000080F3118809BC19681C
:100350000868B0E8F04F1EF0100F08BFB0EC108A2C
:1003600080F30988BFF36F8F704700BFAFF3008041
:1003700088040020174B1A68174B70B512B1012280
:100380001A6070BD154D1A602A681549142606FBBF
:1003900002F3C818CC588CB14468083364684460D0
:1003A0000B449C4204BF63684360142303FB0211A7
:1003B0004B68D9680B4B19602A60E2E742B94FF0ED
:1003C000500383F31188BFF36F8FBFF34F8FFEE7A6
:1003D000013ADCE71C00002020000020240000205F
:1003E0002800002088040020FEE70000F8B500BFC8
:1003F000F8BC08BC9E467047F8B500BFF8BC08BC06
:040400009E4670475D
:0404040009020008E1
:04040800E101000806
:040000050800028964
:00000001FF
